:100000000A128A11FC2F00308A000408840A820731
:1000100000347734773477342E3465346C34653477
:100020006334743472346F3453346F346D346534E4
:100030002E3463346F346D3400344C3443344434E0
:1000400020344C346934623472346134723479341B
:10005000203466346F34723400344434653476347A
:1000600065346C346F347034653464342034423415
:100070007934003465346C346534633474347234E8
:100080006F3453346F346D34653400344D34503430
:100090004C344134423420345834433438340034FE
:100B640000300A128A11ED250A128A1101300A1284
:100B74008A11ED25080001300A128A11ED250A12A6
:100B84008A1108300A128A11ED25080001300A1270
:100B94008A11ED250A128A110C300A128A11ED25E8
:100BA4000800F000701CDA2D831203130816DD2DE3
:100BB400831203130812F01CE12D8816E22D88120B
:100BC400701DE62D0817E72D0813F01DEB2D88176F
:100BD400080088130800F300831203130811730834
:100BE4000A128A11D3250A128A1183120313881553
:100BF4000B30F2006230F100F10BFE2DF20BFE2DF2
:100C040000008312031388110800F700F501F601B0
:100C14007508770784000A128A1103200A128A11C0
:100C24000038031908007508770784000A128A112E
:100C340003200A128A110A128A1129260A128A1119
:100C44000130F5070318F60A0030F6070A2EF400FF
:100C540074080F39F1007108F2007408F039F100DA
:100C64007108F3008312031308157308F1000430AC
:100C74000310F10CFF3E031D3A2E71080A128A116B
:100C8400D3250A128A118312031388151A30F1002E
:100C9400F10B4A2E000083120313881172080A1202
:100CA4008A11D3250A128A118312031388151A3064
:100CB400F100F10B5B2E000083120313881108006E
:100CC400F7007708013A031D882E74087F3EF5006B
:100CD4007508FA007A08F50004300310F50CFF3E9D
:100CE400031D6F2E7508F6007608F8007A080F3990
:100CF400F5007508F90078080A128A11ED250A1220
:100D04008A1179080A128A11ED2508007708023A37
:100D1400031D08007408BF3EF5007508FA007A0840
:100D2400F50004300310F50CFF3E031D942E7508E6
:100D3400F6007608F8007A080F39F5007508F9000E
:100D440078080A128A11ED250A128A1179080A1202
:100D54008A11ED25080000300A128A11D3250A12DF
:100D64008A113430F500F130F400F40BB72EF50B92
:100D7400B72EBC2E03300A128A11ED250A128A11ED
:100D84000D30F500FB30F400F40BC62EF50BC62E27
:100D9400CB2E03300A128A11ED250A128A111D3056
:100DA400F5009130F400F40BD52EF50BD52E03305D
:100DB4000A128A11ED250A128A1102300A128A11C6
:100DC400ED250A128A1102300A128A11ED250A123F
:100DD4008A1108300A128A11ED250A128A1100308C
:100DE4000A128A11ED250A128A110C300A128A118C
:100DF400ED250A128A1100300A128A11ED250A1211
:100E04008A1106300A128A11ED250800831603138D
:100E140088010A128A11AD260A128A110A128A114D
:100E2400B2250A128A11F401F40A01300A128A1155
:100E340062260A128A1115300A128A1107260A122A
:100E44008A11F401F40A02300A128A1162260A1283
:100E54008A113E300A128A1107260A128A111530A5
:100E6400FD004B30FC00D130FB00FB0B372FFC0B9B
:100E7400372FFD0B372F00000A128A11B2250A12F0
:100E84008A11F401F40A01300A128A1162260A1244
:100E94008A1125300A128A1107260A128A11F401CE
:100EA400F40A02300A128A1162260A128A113230B6
:100EB4000A128A1107260A128A111530FD004B30D6
:100EC400FC00D130FB00FB0B652FFC0B652FFD0BE9
:100ED400652F00000A128A11B2250A128A11F40140
:100EE400F40A01300A128A1162260A128A110130A8
:100EF4000A128A1107260A128A1183120313A00107
:100F0400A101003021020F30031920020318AB2F76
:100F14000430FD000C30FC003530FB00FB0B902F3F
:100F2400FC0B902FFD0B902F972F0A128A11BD25D1
:100F34000A128A11013083120313A0070318A10AAD
:100F44000030A107003021020F3003192002031CD6
:100F54008A2FA001A101003021020F3003192002C1
:100F64000318D52F0430FD000C30FC003530FB0095
:100F7400FB0BBA2FFC0BBA2FFD0BBA2FC12F0A1291
:100F84008A11C8250A128A11013083120313A0079B
:100F94000318A10A0030A107003021020F30031901
:100FA4002002031CB42F0A128A11B2250A128A11D4
:100FB400F401F40A02300A128A1162260A128A1112
:100FC40065300A128A1129260A128A1153300A122C
:100FD4008A1129260A128A111530FD004B30FC00B3
:100FE400D130FB00FB0BF42FFC0BF42FFD0BF42F83
:0C0FF4000000102F83010A128A11082F40
:02400E007AFF37
:00000001FF
