:020000040000FA
:100000000A128A11EB2F00308A000408840A820742
:10001000003449344E3443344F345234523445342E
:1000200043345434203450344134533453345734EB
:10003000443400345034413453345334203456342F
:1000400049345334493442344C3445340034313427
:100050002E342D34533469342F3430342E342D342F
:100060004E346F34003443344F34523452344534B8
:10007000433454344F3421340034503441345334F5
:100080005334573444343A3400345B3445345234B6
:0A00900052344F3452345D34003412
:1004E60001340034303430343034303400347E0853
:1004F6008A007F0882000A128A117A220A128A1159
:100506008000840A04087D0603190034FF0A0319D3
:10051600FE0A7E2AF7000130F5000030F600F801E9
:10052600F90178087007F200720884008313000846
:10053600F30078087707F40074088400000873064F
:100546000319A62AA72AAD2A0430F8000030F900BC
:10055600F501F6010130F8070318F90A0030F9072A
:100566007908803AFF0080307F02031DBC2A0430E0
:100576007802031CBF2AC02A942A7608F10075085F
:10058600F0000800F700DF2A73087F3EF5007508C3
:10059600F800F52A7308BF3EF5007508F800F52A3D
:1005A6007308933EF5007508F800F52A7308D33EE4
:1005B600F5007508F800F52A7708F500F6017608C3
:1005C600003A0319E72AF52A7508013A0319C72ADA
:1005D600033A0319CD2A013A0319D32A073A031914
:1005E600D92AF52A78080A128A11C8230A128A110A
:1005F60074080A128A1163240A128A110800F70085
:100606001C2B73087F3EF5007508F800322B730823
:10061600BF3EF5007508F800322B7308933EF500CF
:100626007508F800322B7308D33EF5007508F800FC
:10063600322B7708F500F6017608003A0319242BC9
:10064600322B7508013A0319042B033A03190A2BB6
:10065600013A0319102B073A0319162B322B780887
:100666000A128A11C8230A128A11492B74088400B7
:100676000A128A1103200A128A110A128A116324A5
:100686000A128A110130F5007508F407740884000F
:100696000A128A1103200A128A11003A031D542BEA
:1006A600552B392B0800F030831603138600FF30D4
:1006B6008312031386000610061A622B632B652B22
:1006C6003130C72B861A682B692B6B2B3230C72B20
:1006D600061B6E2B6F2B712B3330C72B861B742B8F
:1006E600752B772B4130C72B06148610061A7C2BE8
:1006F6007D2B7F2B3430C72B861A822B832B852BA1
:100706003530C72B061B882B892B8B2B3630C72BF6
:10071600861B8E2B8F2B912B4230C72B86140611EE
:10072600061A962B972B992B3730C72B861A9C2B9C
:100736009D2B9F2B3830C72B061BA22BA32BA52B3B
:100746003930C72B861BA82BA92BAB2B4330C72BC5
:1007560006158611061AB02BB12BB32B2A30C72BE0
:10076600861AB62BB72BB92B3030C72B061BBC2BE2
:10077600BD2BBF2B2330C72B861BC22BC32BC52BF0
:100786004430C72B861520300800F200831203136D
:10079600081288127208F00007300310F00CFF3EB2
:1007A600031DD02B01307005F10008087106FE39D3
:1007B600710688007208F00006300310F00CFF3E48
:1007C600031DE02B70080139F100F10D08087106D0
:1007D600FD39710688007208F00005300310F00C30
:1007E600FF3E031DF12B70080139F100F10DF10DEB
:1007F60008087106FB39710688007208F00004309B
:100806000310F00CFF3E031D032C70080139F100A4
:10081600F10DF10DF10D08087106F7397106880022
:100826000816152C162C00008312031308127208E2
:10083600F00003300310F00CFF3E031D1D2C0130A9
:100846007005F10008087106FE3971068800720805
:10085600F00002300310F00CFF3E031D2D2C700833
:100866000139F100F10D08087106FD39710688009D
:100876007208F0000310700C0139F100F10DF10D52
:1008860008087106FB397106880072080139F00004
:10089600F00DF00DF00D08087006F73970068800A7
:1008A6000816552C562C0000831203130812083024
:1008B600F1002330F000F00B5E2CF10B5E2C0800EB
:1008C600F20083120313081288167208F00007302C
:1008D6000310F00CFF3E031D6B2C01307005F10078
:1008E60008087106FE39710688007208F0000630A5
:1008F6000310F00CFF3E031D7B2C70080139F1003C
:10090600F10D08087106FD39710688007208F000BD
:1009160005300310F00CFF3E031D8C2C70080139C6
:10092600F100F10DF10D08087106FB39710688001A
:100936007208F00004300310F00CFF3E031D9E2CDD
:1009460070080139F100F10DF10DF10D080871067D
:10095600F739710688000816B02CB12C00008312F6
:10096600031308127208F00003300310F00CFF3E68
:10097600031DB82C01307005F10008087106FE3918
:10098600710688007208F00002300310F00CFF3E7A
:10099600031DC82C70080139F100F10D0808710615
:1009A600FD39710688007208F0000310700C0139D9
:1009B600F100F10DF10D08087106FB39710688008A
:1009C60072080139F000F00DF00DF00D0808700600
:1009D600F739700688000816F02CF12C00008312F7
:1009E60003130812F62CF72C00000830F100233010
:1009F600F000F00BFC2CF10BFC2C08008316031303
:100A0600081088100811881108128812831203131F
:100A16000810881008118811081288120830F4008E
:100A26002330F300F30B152DF40B152D0830F400CD
:100A36002330F300F30B1D2DF40B1D2D0830F400AD
:100A46002330F300F30B252DF40B252D0830F4008D
:100A56002330F300F30B2D2DF40B2D2D0830F4006D
:100A66002330F300F30B352DF40B352D0830F4004D
:100A76002330F300F30B3D2DF40B3D2DF501F50A64
:100A86008312031308108810081588150812881297
:100A9600081088100815881508168812522D532D2F
:100AA6000000831203130810881008158815081211
:100AB60088120830F4002330F300F30B602DF40B9A
:100AC600602D0130F3007308F50704307502031C2E
:100AD6006D2D6E2D432D83120313081088100815F3
:100AE600881108128812081088100815881108162F
:100AF60088127D2D7E2D00008312031308108810A6
:100B060008158811081288120830F4002330F30003
:100B1600F30B8B2DF40B8B2D28300A128A11C82368
:100B26000A128A1110300A128A11C8230A128A116F
:100B360001300A128A11C8230A128A110F300A12CA
:100B46008A11C8230A128A1108008316031789011D
:100B5600880183160313811307309F000A128A1136
:100B660001250A128A1101300A128A11C8230A12B3
:100B76008A110C300A128A11C8230A128A1182308D
:100B8600FB00DD30FA00FA0BC62DFB0BC62DCB2D74
:100B9600F301F30A1230FA007A08F40001300A125F
:100BA6008A1102230A128A11F301F30A1F30FA008E
:100BB6007A08F40002300A128A1102230A128A11F4
:100BC6008316031305108510831203130510851071
:100BD600A901AA01AB01AC01A701A8010A128A1159
:100BE60056230A128A11FA007A0883120313AD00FB
:100BF60020302D060319002E012EBA2F31302D0676
:100C0600031D062E072E472E2B082C04031D0C2E23
:100C16000D2E472E0130A9000030AA000130AB008E
:100C26000030AC000630FA007A08F3002D08FB000D
:100C36007B08F40002300A128A11C5220A128A11B0
:100C46008230FB00DD30FA00FA0B272EFB0B272E35
:100C56002C2E01300A128A11C8230A128A118230F8
:100C6600FB00DD30FA00FA0B362EFB0B362E3B2E40
:100C7600F301F30A3530FA007A08F40001300A125B
:100C86008A1102230A128A113030831203132D06A9
:100C9600031D4E2E4F2E8F2E2B082C04031D542E73
:100CA600552E8F2E0130A9000030AA000230AB006D
:100CB6000030AC000630FA007A08F3002D08FB007D
:100CC6007B08F40002300A128A11C5220A128A1120
:100CD6008230FB00DD30FA00FA0B6F2EFB0B6F2E15
:100CE600742E01300A128A11C8230A128A11823020
:100CF600FB00DD30FA00FA0B7E2EFB0B7E2E832ED8
:100D0600F301F30A3530FA007A08F40001300A12CA
:100D16008A1102230A128A118312031329032A0451
:100D2600031D962E972E8A2F2708280403199C2E1A
:100D36009D2E852F2B032C04031DA22EA32EB12E30
:100D46002008FA007A08F3002D08FB007B08F4005F
:100D560002300A128A11C5220A128A11023083123F
:100D660003132B062C04031DB92EBA2EC82E2008F9
:100D7600FA007A08F3002A30FB007B08F400023000
:100D86000A128A11C5220A128A11831203132D0828
:100D9600FA0020082D3E84007A0883138000013073
:100DA600A0070318A10A0030A10705302006210478
:100DB600031DDE2EDF2EBA2F2230FA007A08F0004D
:100DC6002E300A128A118D220A128A1170037104BA
:100DD600031DEE2EEF2E172F8230FB00DD30FA00BA
:100DE600FA0BF32EFB0BF32EF82E01300A128A11A2
:100DF600C8230A128A118312031305148230FB00DA
:100E0600DD30FA00FA0B052FFB0B052F0A2FF30135
:100E1600F30A2B30FA007A08F40001300A128A111C
:100E260002230A128A11BA2F831203138514013082
:100E36000A128A11C8230A128A116830FB00E430AC
:100E4600FA00FA0B242FFB0B242F0000F301F30A00
:100E56003D30FA007A08F40001300A128A110223A2
:100E66000A128A11F301F30A0130FA007A08F40033
:100E760002300A128A1102230A128A110230FC0079
:100E86000430FB00BA30FA00FA0B472FFB0B472F52
:100E9600FC0B472F000001300A128A11C8230A12E0
:100EA6008A118312031385108230FB00DD30FA00AD
:100EB600FA0B5B2FFB0B5B2F602FF301F30A12304B
:100EC600FA007A08F40001300A128A1102230A1283
:100ED6008A11F301F30A1F30FA007A08F40002308F
:100EE6000A128A1102230A128A1183120313A90114
:100EF600AA01AB01AC01A701A8010130A000003096
:100F0600A100BA2F0130A7000030A800BA2F823006
:100F1600FB00DD30FA00FA0B8E2FFB0B8E2F932F82
:100F260001300A128A11C8230A128A11F301F30A40
:100F36001230FA007A08F40001300A128A110223EC
:100F46000A128A11F301F30A1F30FA007A08F40034
:100F560002300A128A1102230A128A11BA2F273086
:100F6600FB00F530FA00FA0BB62FFB0BB62F8312F7
:100F76000313061EBF2FC02FB22F861EC32FC42FEA
:100F8600B22F061FC72FC82FB22F861FCB2FCC2FED
:100F9600B22FD52F2730FB00F530FA00FA0BD12FF0
:100FA600FB0BD12F83120313061EDA2FDB2FCD2F57
:100FB600861EDE2FDF2FCD2F061FE22FE32FCD2F2C
:100FC600861FE62FE72FCD2FF12D0A128A11002852
:100FD60083132730FD000230FE007330FF002030FF
:100FE60084000A128A117E220A128A11AE01AF010A
:0A0FF600B00183010A128A11A82D30
:04400E00F23CFF3F42
:00000001FF
