:10000000B6EF03F054454D5045524154555241000E
:10001000256620477261646F732043202000EA6ADE
:10002000180EE96EEF500DE0060E016E006A002E0C
:10003000FED7012EFBD77B0E006E002EFED7EF2ED3
:10004000F3D712001FB002D08A9601D08A86939609
:100050001FB202D08A9801D08A8893981FB402D028
:100060008A9A01D08A8A939A1FB602D08A9C01D0BC
:100070008A8C939C00008A809390030E006E002E61
:10008000FED78A9093901200206A9386000E81B664
:10009000010E20129388000E81B8010E006ED890D8
:1000A000003600502012938A000E81BA010E006EB5
:1000B00000360036FC0E001600502012938C000E05
:1000C00081BC010E006E003600360036F80E0016B8
:1000D0000050201220C001F0120093869388938A6A
:1000E000938C8A84939400008A8093900000CCDFE4
:1000F00001C01FF08A90939000008A80939000D0F6
:1001000000D00000C1DF01C01EF08A90939093964A
:100110009398939A939C1F38006EF00E001600502F
:100120001E10016E9AEF00F09390939293948A922E
:100130009392D3D701C01EF001BEFBD71C5202E13F
:100140008A9201D08A82939200008A94939400004C
:100150008A9093901D381E6E0F0E1E161EC01FF043
:1001600071DF1D500F0B1E6E1F6E6CDF1200280E0C
:100170000B6E0C0E0C6E010E0D6E060E0E6E8A903E
:1001800093908A9293928A94939493969398939A45
:10019000939C9390939293940F0E186E40DF010EF0
:1001A0000A6E0A50030808E3030E1F6E4BDF050EAC
:1001B000186E35DF0A2AF5D7020E1F6E43DF050ED3
:1001C000186E2DDF0A6A0A5003080DE3036A0A500D
:1001D0000B0FE96E000E0320EA6EEFCF1DF01C6AD4
:1001E000A3DF0A2AF0D7C1EF03F08E0E006E0BC01A
:1001F00001F00AC002F0036A015209E102C001F0F5
:10020000026A080E005E015202E1006A08D0D8902E
:1002100001BE04D0023601360006F9D7019EE0EF98
:1002200003F01750D8B471D0006E1B50D8B46DD005
:10023000002604E3810E002668E204D07F0E005EF3
:1002400064E363E018C01FF01C501F1A188E1C8E48
:100250001A501E02F4CF21F019501D02F4CF03F002
:10026000F3CF20F01E02F3502126F4502022000E7E
:1002700003221A501D02F3502126F4502022000EB2
:10028000026A0322022218501E02F3502026F45064
:100290000322000E022218501D02F3500326F450D0
:1002A0000222000E016A01221A501C02F35020267D
:1002B000F4500322000E0222012219501C02F350B6
:1002C0000326F4500222000E012218501C02F350A3
:1002D0000226F4500122002A01BE05D02036033642
:1002E000023601360006000E20AE0AD0032A022292
:1002F0000122015005E1025003E1035001E1002A0F
:100300001FBE018E1FAE019E04D0006A016A026A00
:10031000036A12000E50D8B4A5D01A6E1250D8B489
:10032000A1D01A5E05E37F0E1A26D8B09BD006D066
:10033000810E1A5ED8A096D0D8B494D01AC000F01E
:10034000016A026A036A196A0FC018F0188E10C099
:1003500017F011C016F0190E1A6E1550165E0DE248
:10036000010E175E0AE2185E08E2195E06E2192A1B
:10037000182A172A1550162628D01450175E12E294
:10038000010E185E0FE2195E0DE2192A182A1450A8
:1003900017261550162619E3172A17E1182A15E112
:1003A000192A13D013508009185E0EE2010E195E4F
:1003B0000BE2192A13508009182614501726E9E376
:1003C000182AE7E1192AE5D703801A2E01D00BD0AD
:1003D000D8901636173618361936D89003360236A6
:1003E00001361B36BAD71BA006D0D8900132023294
:1003F00003321B3202D0000635E01BBE1ED0D8905F
:1004000016361736183619361550165E07E2010EE5
:10041000175E04E2185E02E2195E1AE31450175EDA
:1004200005E2010E185E02E2195E12E31350800924
:10043000185E03E2010E195E0BE3032A09E1022AAA
:1004400007E1012A05E1002A0DE001320232033200
:100450000FC01AF013501A1A1AAE02D0018E06D02D
:10046000019E04D0006A016A026A036A10EF04F078
:10047000192C01D003D0400E1A6E01D01A6A010E59
:10048000185C1A261A5080091B6E1C6A1D6E4CDE01
:1004900012001750070A07E00B0A0AE0060A10E0EC
:1004A000020A14E018D0010E186E196EE1DF18D0A0
:1004B0001C6A010E1D6E38DE020E186EB0DD10D003
:1004C000010E186E020E196ED3DF0AD01C6A100ED0
:1004D0001D6E2ADE05D0010E1C6E17C01DF024DE35
:1004E00012000900F5520CE0F6CF0AF0F7CF0BF03E
:1004F000F5CF17F0CEDF0AC0F6FF0BC0F7FFF1D73C
:1005000021EF04F01750B608176E036A18C01BF0ED
:10051000188ED890183219321A3203320232013250
:100520000032172EF6D71BAE0BD0001E011E021E86
:10053000031E002AD8B4012AD8B4022AD8B4032A48
:1005400010EF03F0D8B203D0EA6A1F0EE96E006A1A
:10055000016A026A036A1F6A206A216A226A1E50BF
:100560001D101C101B102CE0200E236ED890173687
:10057000183619361A361F362036213622361E50C6
:10058000225C08E11D50215C05E11C50205C02E169
:100590001B501F5C0FE31B501F5E1C50D8A01C3C5F
:1005A000205E1D50D8A01D3C215E1E50D8A01E3CD0
:1005B000225ED8800036013602360336232ED6D787
:1005C0001FC0EFFF20C0ECFF21C0ECFF22C0ECFFFA
:1005D0001200E9500F6E0E50116E19E00DC01AF0A6
:1005E0000CC019F00BC018F00AC017F01E6A1D6A83
:1005F000200E1C6E820E1B6E14DE03C00DF002C0B6
:100600000CF001C00BF000C00AF0112EE7D70DC0AE
:100610001AF00CC019F00BC018F00AC017F072D70E
:1006200003C00DF002C00CF001C00BF000C00AF0D6
:100630000DAE0DD00F060F8A0A1E0B1E0C1E0D1ECE
:100640000A2AD8B40B2AD8B40C2AD8B40D2A3B0EE7
:10065000166E9A0E156ECA0E146E136A0A0E116E7D
:100660000E50D8B40F2AD882EA6A0A0EE96E0DC07D
:100670001AF00CC019F00BC018F00AC017F016C021
:100680001EF015C01DF014C01CF013C01BF05ADF83
:10069000015000520FE10E28115C0CE00F500CE0ED
:1006A0000F0B115C01E037E20FBE35D00FBC04D058
:1006B000200E2DD0200E0F160FAA0CD00F9A0E5020
:1006C000D8A40F0600500F6E2D0E176EE2DE0F50ED
:1006D000006E0F6A0E50115C0AE100500F6E2E0E74
:1006E000176ED7DE0F50006E200E0F16000E300E64
:1006F0000FAA0DD00F9A0E50D8A40F0600500F6EFF
:100700002D0E176EC6DE0F50006E0F6A300E0026DB
:1007100000C017F0BEDED89216C01AF015C019F04E
:1007200014C018F013C017F01E6A1D6A1C6A0A0E66
:100730001B6E08DF03C016F002C015F001C014F0F4
:1007400000C013F0112E8FD733EF04F00900F6CF5D
:100750000BF0F7CF0CF0F5CF17F09BDE0BC0F6FFD8
:100760000CC0F7FF0A2EF2D73AEF04F0F86AD09ED9
:10077000056A046AC150C00B0F09C16E070EB46E42
:10078000F6D4C050C00B0709C06EC08EC280850E63
:10079000CD6E096A086A076A066A000E016EC250C9
:1007A000C30B0110C26E00D000D00000C282C2B2E2
:1007B000FED7C4CF03F0C3CF0AF0C4CF0BF015D5DA
:1007C00003C009F002C008F001C007F000C006F045
:1007D00009C01AF008C019F007C018F006C017F0D9
:1007E000F60E1E6E280E1D6E1C0E1C6E810E1B6EEC
:1007F00018DD03C00DF002C00CF001C00BF000C00A
:100800000AF003C011F002C010F001C00FF000C0E8
:100810000EF0156A146A200E136E820E126E7AD5CF
:1008200003C009F002C008F001C007F000C006F0E4
:10083000010E186E196E1CDE040EF66E000EF76EB9
:1008400050D6010E186E020E196E12DE890EE96E78
:1008500009C00DF008C00CF007C00BF006C00AF08C
:10086000020E0E6EB6D6120EF66E000EF76E0B0E60
:080870000A6E6CD792D7030059
:020000040030CA
:0E00000004CC381E0007A1000FC00FE00F4017
:00000001FF
;PIC18F4550
;CRC=0BA4  CREATED="06-may.-20 11:19"
