:1000000005EF15F0FFFFFFFF00C01CF001C01BF063
:1000100002C01AF004C019F005C018F008C017F0AB
:1000200009C016F00CC015F0E1CF1DF0E2CF1EF0B4
:100030009EA00CD09E90FF0ECF6EEB0ECE6E010EEA
:1000400000017E27000E7F2380238123F2A208D0A7
:1000500000019D809E907E6B7F6B806B816BF29226
:10006000F0A048D000019D909E90F090844B852B8D
:1000700084C000F085C001F0003600900136920E79
:100080000024E16E000E0120E26E7EC0E6FF7FC01C
:10009000E6FF84C000F085C001F000360090013614
:1000A000920E0024D96E000E0120DA6EDE508227F7
:1000B000DE508323000E855D02E1640E845D1AE349
:1000C000846B856B640E046E000E056E82C000F0BA
:1000D00083C001F0FFEC0DF000C082F001C083F09E
:1000E00000C067F001C068F0826B836B7E6B7F6B32
:1000F000806B816B1CC000F01BC001F01AC002F0C5
:1001000019C004F018C005F017C008F016C009F0B7
:1001100015C00CF01DC0E1FF1EC0E2FF11000AAEC9
:10012000029E000E12000B820BAE9DEF00F00368E2
:100130000268016800680A360232FF0E1200026A85
:10014000016A006A086A036A000E12000B840BAE93
:10015000B1EF00F0010E036E026A016A006A0A360E
:100160000232FF0E12000CB0F5EF00F00CA29BEF74
:1001700001F00E6A000E02640CEF01F0F00E0214A2
:10018000D8A4D7EF00F0023A01380F0B022601384D
:10019000F00B016E00380F0B01260038F00B006EDB
:1001A00008380F0B00260838F00B086E0E84D89024
:1001B00002BEF0EF00F008360036013602360E2A95
:1001C00002BEF0EF00F008360036013602360E2A85
:1001D00002BEF0EF00F008360036013602360E2A75
:1001E0000E50036491EF01F0035E0BBC08AE96EF76
:1001F00001F0D880800E08640030000E0022012239
:100200000222D8A096EF01F0023201320032034AF6
:100210009BEF01F096EF01F001C002F000C001F089
:1002200008C000F0086A000E0E86026443EF01F079
:10023000F00E0214D8A42BEF01F0023A01380F0B94
:1002400002260138F00B016E00380F0B0126003832
:10025000F00B006E0E84D89002BEF0EF00F0003676
:10026000013602360E2A02BEF0EF00F000360136EB
:1002700002360E2A02BEF0EF00F0003601360236DA
:100280000E2AF0EF00F001C002F000C001F0006A99
:10029000000E0E960E88026470EF01F0F00E02144C
:1002A000D8A45BEF01F0023A01380F0B02260138A7
:1002B000F00B016E0E84D89002BEF0EF00F0013614
:1002C00002360E2A02BEF0EF00F0013602360E2A88
:1002D00002BEF0EF00F0013602360E2AF0EF00F019
:1002E00001C002F0016A000E0E860264A0EF01F068
:1002F000F00E0214D8A47FEF01F0023A0E84D890D9
:1003000002BEF0EF00F002360E2A02BEF0EF00F05F
:1003100002360E2A02BEF0EF00F002360E2AF0EF8F
:1003200000F0010E0C6E12DFA3EF01F0020E0C6E56
:10033000F6DEA3EF01F0040E0C6EF5DEA3EF01F084
:10034000080E0C6EFCDE12000B800BAEB0EF01F05D
:10035000026A0AAEFF0E026E016E006E0A360232AB
:10036000FF0E1200025006180E6E086A096A0B6A28
:1003700003500764A5EF02F006500A6E068E028E47
:1003800003500B6E0750036E000E0B64F5EF01F087
:100390000B50075ED8B496EF02F0070E076464EFC7
:1003A00002F0075E00C008F001C000F002C001F0DA
:1003B000026A074E96EF02F0076439EF02F0075E1B
:1003C00000C008F001C000F0016A074E96EF02F08D
:1003D000076417EF02F0075E00C008F0006A074EDE
:1003E00096EF02F00764FEEF01F00AC002F005C0CC
:1003F00001F004C000F0086ABFEF03F0030E0764C9
:1004000009EF02F0075E08380F0B086E074E96EFF3
:1004100002F0D8900832074E96EF02F0D8900832DA
:10042000074E96EF02F0D890083296EF02F0030ED6
:10043000076428EF02F0075E08380F0B086E0038DB
:10044000F00B082600380F0B006E074E96EF02F0F7
:10045000D89000320832074E96EF02F0D890003262
:100460000832074E96EF02F0D8900032083296EF2D
:1004700002F0030E076450EF02F0075E08380F0B1E
:10048000086E0038F00B082600380F0B006E01389C
:10049000F00B002601380F0B016E074E96EF02F0AD
:1004A000D890013200320832074E96EF02F0D89011
:1004B000013200320832074E96EF02F0D890013236
:1004C0000032083296EF02F0030E076481EF02F06B
:1004D000075E08380F0B086E0038F00B082600384E
:1004E0000F0B006E0138F00B002601380F0B016E68
:1004F0000238F00B012602380F0B026E074E96EF02
:1005000002F0D8900232013200320832074E96EFE4
:1005100002F0D8900232013200320832074E96EFD4
:1005200002F0D8900232013200320832096A000E1D
:100530000EAE8AEF03F0081E001E011E021E082ADE
:100540000022012202228AEF03F00750D8A4ABEF69
:1005500002F0BFEF03F0096A02C00AF0028E068EB5
:100560000750035C076ED8B47DEF03F0070E0764F5
:100570004BEF03F0075E0450096E0550046E065001
:10058000056E066A074E7DEF03F0070E076420EF45
:1005900003F0075E0450096E0550046E056A074EAD
:1005A0007DEF03F0070E0764FEEF02F0075E0450D4
:1005B000096E046A074E7DEF03F0070E0764E5EF4E
:1005C00002F00AC002F0BFEF03F0030E0764F0EF81
:1005D00002F0075E09380F0B096E074E7DEF03F03E
:1005E000D8900932074E7DEF03F0D8900932074EBC
:1005F0007DEF03F0D89009327DEF03F0030E07641E
:100600000FEF03F0075E09380F0B096E0438F00B8B
:10061000092604380F0B046E074E7DEF03F0D890C7
:1006200004320932074E7DEF03F0D89004320932CC
:10063000074E7DEF03F0D890043209327DEF03F0CE
:10064000030E076437EF03F0075E09380F0B096EDE
:100650000438F00B092604380F0B046E0538F00B34
:10066000042605380F0B056E074E7DEF03F0D8907A
:10067000053204320932074E7DEF03F0D89005327F
:1006800004320932074E7DEF03F0D8900532043270
:1006900009327DEF03F0030E076468EF03F0075E95
:1006A00009380F0B096E0438F00B092604380F0BBC
:1006B000046E0538F00B042605380F0B056E06385E
:1006C000F00B052606380F0B066E074E7DEF03F084
:1006D000D8900632053204320932074E7DEF03F01E
:1006E000D8900632053204320932074E7DEF03F00E
:1006F000D8900632053204320932086A000E0EAE76
:100700008AEF03F0091E041E051E061E092A042294
:100710000522062209500826045000220550012215
:10072000065002220EBEA1EF03F0D8A0B0EF03F0F6
:100730000232013200320832033EB0EF03F0BAEF6A
:1007400003F0D8B0B5EF03F0000E081E001E011E26
:10075000021E082A0022012202220A7EB5EF03F0BF
:10076000010E0C6E00DDC1EF03F0020E0C6EFBDC1F
:10077000C1EF03F0040E0C6ED6DCC1EF03F0000EE7
:100780000C6E1200086A096A000E0762036447EFE4
:1007900004F0025006180A6E075003267E0ED8A0F9
:1007A000D8EF03F0035ED8B04BEF04F0DCEF03F0BA
:1007B000035ED8A04FEF04F0028E068E02C00EF04A
:1007C00001C00BF000C00DF000500402F4CF0CF09B
:1007D00001500502F4CF00F0F3CF08F00402F3500B
:1007E0000C26F4500822000E00220D500502F35092
:1007F0000C26F4500822000E002202500402F3508E
:100800000826F450002202500502016A000E01225F
:10081000F3500026F45001220D500602F350082632
:10082000F4500022026A000E012202220B5006023E
:10083000F3500026F4500122000E02220E50060250
:10084000F3500126F450022202BE2FEF04F00836C6
:100850000036013602360306D8B44FEF04F042EFFB
:1008600004F0D880800E08640030000E00220122BF
:100870000222D8A042EF04F0023201320032034AD1
:100880004BEF04F00AAE029E000E51EF04F0010E91
:1008900056DC51EF04F0020E46DC51EF04F0040E7A
:1008A00055DC12000B6A0B86FF0E12000A6A035019
:1008B000D8A40A800750D8A40A820A50D8B4B9EF45
:1008C00004F0030AD8B472EF04F00AB06DEF04F03C
:1008D00006AEB7EF04F0B5EF04F002AEB5EF04F0EA
:1008E000B7EF04F00250800B0A6E029E0650800B98
:1008F000069E0A18D8B483EF04F00A50D8B4B5EFB6
:1009000004F0B7EF04F00750035CD8B48DEF04F0A7
:10091000D8A0A9EF04F0AFEF04F00650025CD8B401
:1009200097EF04F0D8A0A9EF04F0AFEF04F0055062
:10093000015CD8B4A1EF04F0D8A0A9EF04F0AFEFA8
:1009400004F00450005CD8B4B9EF04F0D8B0AFEFB5
:1009500004F00A52D8B4B7EF04F0B5EF04F00A522D
:10096000D8B4B5EF04F0B7EF04F0D8801200D890F7
:100970001200D880D88412001200067EF3DC120028
:100980000050086E0150006E0250016E0350026E5E
:10099000036A0B6A0C6A9E0E036E0A6A02AEDDEFF2
:1009A00004F0081E001E011E021E082AD8B4002AE8
:1009B000D8B4012AD8B4022A0A8E020E0C6EB3EC07
:1009C00000F012000B6A0C6A086A0350D8B466EF94
:1009D00005F002C00AF0028E9E0E035E03AE56EFD3
:1009E00005F0036C080E035CD8A023EF05F0036E3E
:1009F000083600C008F001C000F002C001F0026A31
:100A0000080E035CD8A023EF05F0036E083600C083
:100A100008F001C000F0016A080E035CD8A023EFC3
:100A200005F0036E083600C008F0006A080E035C8B
:100A3000D8A023EF05F0036E0836086A0350D8A447
:100A4000D8902FEF05F00350D8B42FEF05F0D890D1
:100A50000232013200320832032E27EF05F00BBCC0
:100A600008A040EF05F0D8A040EF05F0082AD8B460
:100A7000002AD8B4012AD8B4022A02BE6AEF05F0CF
:100A80000AAE66EF05F0021E011E001E081E082AAF
:100A9000D8B4002AD8B4012AD8B4022A66EF05F0E7
:100AA000026A016A006A086A66EF05F00B800BAE05
:100AB00070EF05F0026A0AAE70EF05F0026E016E8B
:100AC000006E086E0A36023270EF05F00C6A000EF6
:100AD00071EF05F0010E0C6E000E36DC71EF05F0C3
:100AE000FF0E0250036E0150026E0050016E08505E
:100AF000006E1200530E0D6E0D2EFED71200240E46
:100B00000C6EB50E0D6E0D2EFED70C2EFCD7000010
:100B100000001200000000000000000000001200B1
:100B2000C3C100F0016A026A036AFF0E0016000EDC
:100B3000011600C0C8F101C0C9F17F0E005C026E51
:100B4000000E0158036E02C0C8F103C0C9F1800E47
:100B50000318006E800E005C02E1000E025C21E2D0
:100B6000046A056A066A076AC0C100F0C1C101F0E3
:100B7000C2C102F0C3C103F099DE010ED8B0000E6D
:100B8000006E005209E0000E006E000E016E800E35
:100B9000026E7F0E036E5AD0006A016A026A036A0F
:100BA00055D0000E006E0101C951005C02E1C85130
:100BB000180809E2C0C100F0C1C101F0C2C102F0D1
:100BC000C3C103F043D0C0C100F0C1C101F0C2C134
:100BD00002F0C3C103F0F6DED3DE00C0C4F101C0F1
:100BE000C5F102C0C6F103C0C7F100C004F001C0E6
:100BF00005F002C006F003C007F0C0C100F0C1C19B
:100C000001F0C2C102F0C3C103F050DE010ED8B042
:100C1000000E006E005212E0000E046E000E056E13
:100C2000000E066E7F0E076EC4C100F0C5C101F054
:100C3000C6C102F0C7C103F0A0DE08D0C4C100F0F5
:100C4000C5C101F0C6C102F0C7C103F01200010125
:100C5000C0BF02D08C9801D08C88C0BD02D08C9AC5
:100C600001D08C8AC0BB02D08C9C01D08C8CC0B9C6
:100C700002D08C9E01D08C8E5FB002D08A8801D0C9
:100C80008A988A8647DF8A96C0B702D08C9801D0AE
:100C90008C88C0B502D08C9A01D08C8AC0B302D0A7
:100CA0008C9C01D08C8CC0B102D08C9E01D08C8EDB
:100CB0005FB002D08A8801D08A988A862BDF8A9614
:100CC0005FA002D01CDF01D015DF1200C7C100F009
:100CD000C8C101F0000E0101C8BFFF0E026E036E15
:100CE0000036009001360236033600360090013699
:100CF00002360336C4510024F66EC5510120F76E4A
:100D0000C6510220F86E0900F5CFC9F10900F5CFF0
:100D1000CAF10900F5CFCBF10900F5CFCCF1C751ED
:100D2000C81148E0C0C100F0C1C101F0C2C102F069
:100D3000C3C103F0C9C104F0CAC105F0CBC106F0BC
:100D4000CCC107F01FDD010EC75F000EC85BC7C135
:100D500004F0C8C105F0000EC8BFFF0E066E076E96
:100D600004360490053606360736043604900536F8
:100D700006360736C4510424F66EC5510520F76EB9
:100D8000C6510620F86E0900F5CF04F00900F5CF32
:100D900005F00900F5CF06F00900F5CF07F0B2EC39
:100DA00001F000C0C9F101C0CAF102C0CBF103C01B
:100DB000CCF1B5D7C9C100F0CAC101F0CBC102F076
:100DC000CCC103F012000450000A12E10550000AE1
:100DD0000FE10650000A0CE10750000A09E1FF0E7E
:100DE000006EFF0E016E7F0E026EFF0E036EA7D027
:100DF000086A096A0750D8B48EEF07F00350D8B4D8
:100E000092EF07F0025006180A6E028E068E0E6AE6
:100E100002C008F001C00CF000C00DF004500D5EDF
:100E20000550D8A0053C0C5E0650D8A0063C085ED4
:100E3000086A0C6A0D6AD8A025EF07F0D890023234
:100E4000013200320832010E0E6E0750035ED8A048
:100E500032EF07F07E0E0E240326D8B097EF07F08E
:100E600038EF07F07E0E0E240326D8A09CEF07F083
:100E7000180E0B6E0D360C3608360036013602366B
:100E80000E360450005E0550D8A0053C015E0650A9
:100E9000D8A0063C025E06340E120EA053EF07F0F7
:100EA0000D805EEF07F0045000260550D8B0053CD9
:100EB00001260650D8B0062802260D900B2E3AEFD8
:100EC00007F084EF07F0D8900036013602360E3670
:100ED0000450005E0550D8A0053C015E0650D8A025
:100EE000063C025E06340E10010B0D26D8B00C2A0B
:100EF000D8B4082AD8A484EF07F008320C320D3297
:100F0000032AD8B497EF07F00AAE089E0850026E85
:100F10000C50016E0D50006E9FEF07F0010EC2DC09
:100F20009FEF07F0020E9FEC00F09FEF07F0040E1A
:100F300093EC00F09FEF07F0080EA6EC00F0120013
:100F40000450085E0550D8A0053C095E0650D8A0A4
:100F5000063C0A5E0750D8A0073C0B5E0336070E1E
:100F60000C6E0334083609360A360B36045003A0DB
:100F70000ED0085E0550D8A0053C095E0650D8A0EA
:100F8000063C0A5E0750D8A0073C0B5E0DD0082631
:100F90000550D8B0053C09260650D8B0063C0A26B4
:100FA0000750D8B0073C0B2603360C2EDAD7023494
:100FB000083609360A360B36045003A00ED0085EF8
:100FC0000550D8A0053C095E0650D8A0063C0A5E34
:100FD0000750D8A0073C0B5E0DD008260550D8B0AE
:100FE000053C09260650D8B0063C0A260750D8B062
:100FF000073C0B260236070E0C6E02340836093603
:101000000A360B36045002A00ED0085E0550D8A058
:10101000053C095E0650D8A0063C0A5E0750D8A0E1
:10102000073C0B5E0DD008260550D8B0053C0926BC
:101030000650D8B0063C0A260750D8B0073C0B260D
:1010400002360C2EDAD70134083609360A360B364A
:10105000045002A00ED0085E0550D8A0053C095EE1
:101060000650D8A0063C0A5E0750D8A0073C0B5E8D
:101070000DD008260550D8B0053C09260650D8B03A
:10108000063C0A260750D8B0073C0B260136070E4F
:101090000C6E0134083609360A360B36045001A0AE
:1010A0000ED0085E0550D8A0053C095E0650D8A0B9
:1010B000063C0A5E0750D8A0073C0B5E0DD0082600
:1010C0000550D8B0053C09260650D8B0063C0A2683
:1010D0000750D8B0073C0B2601360C2EDAD7003467
:1010E000083609360A360B36045001A00ED0085EC9
:1010F0000550D8A0053C095E0650D8A0063C0A5E03
:101100000750D8A0073C0B5E0DD008260550D8B07C
:10111000053C09260650D8B0063C0A260750D8B030
:10112000073C0B260036070E0C6E003408360936D5
:101130000A360B36045000A00ED0085E0550D8A029
:10114000053C095E0650D8A0063C0A5E0750D8A0B0
:10115000073C0B5E0DD008260550D8B0053C09268B
:101160000650D8B0063C0A260750D8B0073C0B26DC
:1011700000360C2EDAD700B00ED0045008260550E9
:10118000D8B0053C09260650D8B0063C0A260750C0
:10119000D8B0073C0B2612000C6A0E6A0250D8A485
:1011A000E5EF08F001C002F000C001F0006A0E8611
:1011B0000250D8A4E5EF08F001C002F0016A0E96D3
:1011C0000E880250D8B4F7EF08F00E50035ED8A492
:1011D000D8A0FDEF08F0D89002BE03EF09F000366A
:1011E00001360236032EECEF08F0FDEF08F0010E99
:1011F0000C6E9FEC00F007EF09F0020E0C6EA6ECEF
:1012000000F007EF09F0040E0C6E8FEC00F01200F6
:10121000240E0D6E0D2EFED7000012000101BF6BD3
:10122000046A056A066A076AB7C100F0B8C101F02E
:10123000B9C102F0BAC103F056EC04F0010ED8B007
:10124000000E006E005203E0B97F010EBF6FB7C100
:1012500000F0B8C101F0B9C102F0BAC103F0830EC9
:10126000046EF90E056E220E066E7C0E076EC2EC41
:1012700003F000C0B7F101C0B8F102C0B9F103C07A
:10128000BAF100C0C0F101C0C1F102C0C2F103C097
:10129000C3F146DC00C004F001C005F002C006F056
:1012A00003C007F0B7C100F0B8C101F0B9C102F046
:1012B000BAC103F0BDEC04F0000E046E000E056E22
:1012C000000E066E810E076EC2EC03F000C0B7F18F
:1012D00001C0B8F102C0B9F103C0BAF100C004F016
:1012E00001C005F002C006F003C007F0000E006E5A
:1012F000000E016E000E026E800E036E56EC04F0BE
:10130000010ED8B0000E006E005220E0000E046EF8
:10131000000E056E000E066E800E076EB7C100F05F
:10132000B8C101F0B9C102F0BAC103F0BDEC04F0DC
:1013300000C0B7F101C0B8F102C0B9F103C0BAF101
:101340000101BF53010ED8A4000EBF6FB7C104F056
:10135000B8C105F0B9C106F0BAC107F0000E006EC1
:10136000000E016E000E026E7F0E036E56EC04F04E
:10137000010ED8B0000E006E00521AE0B7C104F0A2
:10138000B8C105F0B9C106F0BAC107F0000E006E91
:10139000000E016E000E026E800E036EBDEC04F0B6
:1013A00000C0B7F101C0B8F102C0B9F103C0BAF191
:1013B0000101B7C100F0B8C101F0B9C102F0BAC172
:1013C00003F0B7C104F0B8C105F0B9C106F0BAC165
:1013D00007F0C2EC03F000C0BBF101C0BCF102C0D9
:1013E000BDF103C0BEF100C0C0F101C0C1F102C037
:1013F000C2F103C0C3F12A0EC46F2D0EC56F000EDB
:10140000C66F040EC76F000EC86F60DCB7C104F072
:10141000B8C105F0B9C106F0BAC107F0C2EC03F0DB
:1014200000C0B7F101C0B8F102C0B9F103C0BAF110
:10143000BBC1C0F1BCC1C1F1BDC1C2F1BEC1C3F1EC
:101440004F0EC46F2D0EC56F000EC66F030EC76F13
:10145000000EC86F3BDC00C004F001C005F002C004
:1014600006F003C007F0B7C100F0B8C101F0B9C180
:1014700002F0BAC103F0A7DC00C0B7F101C0B8F1B7
:1014800002C0B9F103C0BAF10101BF530DE0000E73
:10149000B719006E000EB819016E800EB919026EF0
:1014A000000EBA19036E08D0B7C100F0B8C101F040
:1014B000B9C102F0BAC103F012005F90B7C1C0F128
:1014C00027EC06F05F8012000B1E0A1E091E081E84
:1014D000082AD8B4092AD8B40A2AD8B40B2A120088
:1014E0000134083609360450085E0550D8A0053C82
:1014F000095E003601360F0E0C6E013408360936CF
:10150000045000A006D0085E0550D8A0053C095E36
:1015100005D008260550D8B0053C0926003601360E
:101520000C2EEBD700B006D0045008260550D8B0DA
:10153000053C092600001200220E0C6E086A096A9A
:101540000A6A0B6A0C06D8B41FD0D8900B320A3244
:10155000093208320332023201320032D8A0F2D707
:101560000C06D8B409D004500826055009220650AC
:101570000A2207500B22EAD70450082605500922F8
:1015800006500A2207500B221200ADC104F0AEC172
:1015900005F0AFC106F0B0C107F0DB0E006E0F0E14
:1015A000016E490E026E800E036E56EC04F0010EC1
:1015B000D8B0000E006E00521CE0E40E046ECB0E9C
:1015C000056E160E066E810E076EADC100F0AEC13F
:1015D00001F0AFC102F0B0C103F0BDEC04F000C0F7
:1015E000B7F101C0B8F102C0B9F103C0BAF116DE1B
:1015F0001BD0ADC100F0AEC101F0AFC102F0B0C16F
:1016000003F0DB0E046E0F0E056E490E066E7F0EA4
:10161000076EB2EC01F000C0B7F101C0B8F102C032
:10162000B9F103C0BAF1FADD12000B6A0350D8B465
:101630005BEF0BF002500A6E028E8E0E035E03AE5D
:101640005FEF0BF0036C080E035CD8A03AEF0BF0D1
:10165000036E013602C001F0026A080E035CD8A0D6
:101660003AEF0BF0036E0136016A0350D8A4D8900C
:1016700044EF0BF00350D8B444EF0BF0D890023293
:101680000132032E3EEF0BF00BBC01A051EF0BF02B
:10169000D8A051EF0BF0012AD8B4022A02BE6EEF97
:1016A0000BF00AAE74EF0BF0021E011E012AD8B433
:1016B000022A74EF0BF0026A016A74EF0BF00B80E0
:1016C0000BAE78EF0BF0026A0AAE78EF0BF0FF0E6C
:1016D000026E016E0A36023278EF0BF0010E0C6ECC
:1016E000A4EC01F07AEF0BF0000E0C6E7AEF0BF029
:1016F000FF0E0C6E0150006E0250016E1200B0C160
:1017000000F0016A026A036AFF0E0016000E01165D
:1017100000C0B5F101C0B6F17F0E005C026E000E94
:101720000158036E02C0B5F103C0B6F1800E031874
:10173000006E800E005C02E1000E025C22E2ADC190
:1017400004F0AEC105F0AFC106F0B0C107F0006A09
:10175000016A026A036A56EC04F0000ED8B0010E6A
:10176000006E005205E0006A016A026A036A5AD0FC
:10177000000E006E000E016E000E026E7F0E036EF4
:1017800051D0000E006E0101B651005C02E1B5516E
:10179000180809E2ADC100F0AEC101F0AFC102F01E
:1017A000B0C103F03FD0ADC100F0AEC101F0AFC198
:1017B00002F0B0C103F0E2EC04F0C0EC04F000C0B1
:1017C000B1F101C0B2F102C0B3F103C0B4F1ADC1D7
:1017D00004F0AEC105F0AFC106F0B0C107F056ECA1
:1017E00004F0010ED8B0000E006E005213E0B1C13B
:1017F00000F0B2C101F0B3C102F0B4C103F0000EB9
:10180000046E000E056E000E066E7F0E076EB2ECC3
:1018100001F008D0B1C100F0B2C101F0B3C102F0D3
:10182000B4C103F012000450000A08E10550000A98
:1018300005E1FF0E006E7F0E016E57D00D6A096A3A
:10184000086A01500010D8B4000C015005180A6E47
:101850000ABE0D1E0B6A05AE05D0041E051E042A25
:10186000D8B4052A01AE05D0001E011E002AD8B446
:10187000012A015005100A6E0ABE10D031DE0BB0ED
:1018800020D00DAE000C001E011E002AD8B4012A83
:10189000081E091E082AD8B4092A000C05AE0DD06E
:1018A00001BE07D00150096E0050086E016A006A3F
:1018B000E8D7016A006A002A000C011E001E0B2AEC
:1018C000DDD7082AD8B4092A0450085CD8A4D9D78F
:1018D0000550095CD8A4D5D7096A086A002AD8B48B
:1018E000012A01AECED70000FF0C12000B6A0A6A73
:1018F000096A00500402F4CF09F0F3CF08F0015058
:101900000502F4CF0BF0F3CF0AF000500502F350BC
:101910000926F4500A22E86A0B2201500402F3500F
:101920000926F4500A22E86A0B2208C000F009C018
:1019300001F00AC002F00BC003F012000450000ACC
:1019400012E10550000A0FE10650000A0CE10750B1
:10195000000A09E1FF0E006EFF0E016EFF0E026E1F
:101960007F0E036E98D00C6A07BE0C2A0D6A0B6AB4
:101970000A6A096A086A0350021001100010D8B4FC
:1019800085D0035007180E6E0EBE0D1E07AE0BD08D
:10199000041E051E061E071E042AD8B4052AD8B444
:1019A000062AD8B4072A03AE0BD0001E011E021E61
:1019B000031E002AD8B4012AD8B4022AD8B4032AB4
:1019C000035007100E6E0EBE1DD0A0EC07F00CBE2B
:1019D00036D00DAE5BD0001E011E021E031E002A73
:1019E000D8B4012AD8B4022AD8B4032A081E091E82
:1019F0000A1E0B1E082AD8B4092AD8B40A2AD8B459
:101A00000B2A44D007AE15D003BE0DD003500B6E89
:101A100002500A6E0150096E0050086E036A026A95
:101A2000016A006AD6D7036A026A016A006A002A5C
:101A3000000C031E021E011E001E0C8EC6D7082AB3
:101A4000D8B4092AD8B40A2AD8B40B2A0450085C9E
:101A5000D8A4BFD70550095CD8A4BBD706500A5CF0
:101A6000D8A4B7D707500B5CD8A4B3D70B6A0A6ABF
:101A7000096A086A002AD8B4012AD8B4022AD8B45C
:101A8000032A03AEA6D70E6A0E88FF0C0E6A0CA0BE
:101A900001D01ADD000F120010D0800E0101AD6FD1
:101AA0001AD0C00EAD6F17D0940EAD6F14D0D40EF7
:101AB000AD6F11D0800EAD6F0ED00101AD51010A96
:101AC000ECE0AD51020AEDE0AD51030AEDE0AD519D
:101AD000040AEDE0EFD7AE05006EAD51002600C060
:101AE000ADF100C0C0F127EC06F05F900001606B23
:101AF00060510101AF25E96E000EB021EA6EEE5291
:101B00000EE0000160510101AF25E96E000EB02129
:101B1000EA6EEECFB7F1D1DC0001602BE9D75F8030
:101B200012000B6A0C6A0A6A0350D8B4DBEF0DF09E
:101B3000028E8E0E035E03BEA3EF0DF0D8B4A3EFAA
:101B40000DF0DFEF0DF0036C080E035CD8A0BAEFC8
:101B50000DF0036E013602C001F0026A080E035C4C
:101B6000D8A0BAEF0DF00136016A0350D8A4D8907E
:101B7000C4EF0DF00350D8B4C4EF0DF0D89002328A
:101B80000132032EBEEF0DF00BBC01A0D1EF0DF022
:101B9000D8A0D1EF0DF0012AD8B4022A02BEEEEF90
:101BA0000DF00AAEF4EF0DF0021E011E012AD8B4AA
:101BB000022AF4EF0DF0026A016AF4EF0DF00B80D7
:101BC0000BAEF8EF0DF0026A0AAEF8EF0DF0FF0E63
:101BD000026E016E0A360232F8EF0DF0010E0C6E45
:101BE000A4EC01F0FAEF0DF0000E0C6EFAEF0DF020
:101BF000FF0E0C6E0150006E0250016E1200086A5A
:101C0000096A100E0C6E0134083609360450085E5D
:101C10000550D8A0053C095ED8B007D0045008266E
:101C20000550D8B0053C0926D890003601360C2E58
:101C3000EAD712000900F5CFE6FF0006FBE1010636
:101C4000F9E112000050086E0150006E016A026A4C
:101C5000036A0B6A0C6A960E036E0A6A00C001F0F2
:101C600008C000F0086A026ACCEC08F01200800E8E
:101C70000101AE19006E800E005C02E1000EAD5D48
:101C800008E2AD510008006EAEC101F0000E015631
:101C900004D0ADC100F0AEC101F01200C26A070E5F
:101CA000C012C08E60C000F0003600900036009078
:101CB0000050C212C28008EC09F0C282C2A201D058
:101CC000FDD7C4CF01F0006AC3500012000E01120C
:101CD000C2901200086A080E0C6E003408360450D8
:101CE000085ED8B002D00826D89000360C2EF5D762
:101CF000120093969398959E959C959A95988A969E
:101D00008A988C988C9A8C9C8C9E7FEC05F07FEC4A
:101D100005F07FEC05F08C8C8C8E8A868AEC05F0C1
:101D20008A967FEC05F08A868AEC05F08A967FEC2D
:101D300005F08A868AEC05F08A967FEC05F08C9E89
:101D40008A868AEC05F08A967FEC05F08A868AEC12
:101D500005F08A968C9C8C888A868AEC05F08A9697
:101D60007FEC05F08C988C8E8A868AEC05F08A963A
:101D70008C9E8A868AEC05F08A967FEC05F08A862E
:101D80008AEC05F08A968C8E8A868AEC05F08A9613
:101D90007FEC05F08C9E8A868AEC05F08A968C880A
:101DA0008C8A8C8C8C8E8A868AEC05F08A967FECE5
:101DB00005F05F80120001018B6B8C6B8D6B8E6B5D
:101DC0008F6B906B050EC26E8F6B906B800E9019AF
:101DD000006E800E030A005C02E1E80E8F5D16E2E1
:101DE000010E0001606F5ADF00C08BF101C08CF161
:101DF000015001018E5D02E100508D5D04E28BC156
:101E00008DF18CC18EF18F4B902BE0D78DC100F0FE
:101E10008EC101F017DFC90E046E760E056E3E0E00
:101E2000066E7C0E076EC2EC03F000C03EF001C0EF
:101E30003FF002C040F003C041F015EC0BF000C0D1
:101E40008AF001C08BF0000E01BEFF0E00018C6F06
:101E50008D6F01018D6B8E6B1200FF0E01015A6FA9
:101E6000FF0E5B6FFF0E5C6FFF0E5D6FC26A070EA9
:101E7000C012C08EC280120001018B6B8C6B8D6B07
:101E80008E6B8F6B906B090EC26E8F6B906B030E17
:101E9000905D02E1E80E8F5D16E2020E0001606FB8
:101EA000FDDE00C08BF101C08CF1015001018E5D9F
:101EB00002E100508D5D04E28BC18DF18CC18EF189
:101EC0008F4B902BE4D78DC100F08EC101F0BADEAC
:101ED00000C0ADF101C0AEF102C0AFF103C0B0F17E
:101EE0000EDC15EC0BF000C0ADF101C0AEF1BFDEB1
:101EF00000C08DF101C08EF1A5DE140E046EAE0E91
:101F0000056E270E066E7E0E076EC2EC03F000C053
:101F100061F001C062F002C063F003C064F015EC30
:101F20000BF000C08EF001C08FF0000E01BEFF0E5E
:101F30000001906F916F01018D6B8E6B1200D66A5C
:101F4000D76A1A0E0B6E3D0E0C6EF70E0D6E0D2E2F
:101F5000FED70C2EFCD70B2EFAD70A0E046ED6CF66
:101F600000F0B8DE300E00242E6E0A0E046ED6CFBE
:101F700000F0B0DE08C000F0300E00242F6E010E1D
:101F80000101AD6F010EAE6F3E0EF66E2D0EF76EB7
:101F9000000EF86E8B0EE16E010EE26E110E006EF9
:101FA000010E016E47DE8B0EAF6F010EB06F74DD58
:101FB000010E0101AD6F010EAE6F2C0EAF6F000E62
:101FC000B06F6ADD330E0B6EBB0E0C6EDF0E0D6E46
:101FD0000D2EFED70C2EFCD70B2EFAD700000000DA
:101FE0001200640E046E000E056E066E076E8AC047
:101FF00000F08BC001F08CC002F08DC003F09EDCBD
:10200000300E0024366E2E0E376E0A0E046E000E51
:10201000056E066E076E8AC000F08BC001F08CC0A2
:1020200002F08DC003F08ADC0A0E046E000E056E0D
:10203000066E076E83DC08C000F009C001F00AC01C
:1020400002F00BC003F0300E0024386E0A0E046E4E
:10205000000E056E066E076E8AC000F08BC001F0A0
:102060008CC002F08DC003F069DC08C000F009C02C
:1020700001F00AC002F00BC003F0300E0024396EEC
:10208000010E0101AD6F090EAE6F330EAF6F000E82
:10209000B06F02DD020E0B6E450E0C6EA90E0D6EBA
:1020A0000D2EFED70C2EFCD70B2EFAD70000000009
:1020B00012000001846B856B000E855D02E1640EE9
:1020C000845D14E284C000F085C001F00036009009
:1020D0000136920E0024E16E000E0120E26EE66AE7
:1020E000E66A844B852B844B852BE6D7030E0B6E5B
:1020F0008A0E0C6E550E0D6E0D2EFED70C2EFCD7D3
:102100000B2EFAD700000000F28EF288F0869D8038
:10211000330E0B6EBB0E0C6EDF0E0D6E0D2EFED74A
:102120000C2EFCD70B2EFAD70000000067C000F081
:1021300068C001F000360090013684DDF90E046EAF
:102140000F0E056E490E066E800E076EC2EC03F090
:10215000000E046E000E056E7A0E066E880E076E77
:10216000E3EC06F000C0ADF101C0AEF102C0AFF18A
:1021700003C0B0F1C5EC0AF000C069F001C06AF01C
:1021800002C06BF003C06CF0000E046E000E056E12
:102190007A0E066E880E076EC2EC03F000C0ADF139
:1021A00001C0AEF102C0AFF103C0B0F17FEC0BF0A3
:1021B00015EC0BF000C0ADF101C0AEF158DD00C070
:1021C0007AF001C07BF0000E01BEFF0E00017C6FB3
:1021D0007D6F0A0E7A25016E000E7B21026E000EC5
:1021E0007C21036E000E7D21046E800E0418006EAB
:1021F000800E4718005C08E14650035C05E145503D
:10220000025C02E14450015C07E20A0E445E000EEB
:10221000455A465A475A2DD07AC001F07BC002F089
:102220007CC003F07DC004F00A0E015E000E025A6D
:10223000035A045A800E4718006E800E0418005C82
:1022400008E10350465C05E10250455C02E10150A3
:10225000445C07E20A0E4426000E4522462247222D
:1022600008D07AC044F07BC045F07CC046F07DC009
:1022700047F0E80E046E030E056E000E066E076E44
:1022800044C000F045C001F046C002F047C003F072
:102290009EEC0CF0300E00240001746F640E046E8E
:1022A000000E056E066E076E44C000F045C001F0DA
:1022B00046C002F047C003F09EEC0CF00A0E046E1C
:1022C000000E056E066E076E9EEC0CF008C000F066
:1022D00009C001F00AC002F00BC003F0300E002468
:1022E0000001766F0A0E046E000E056E066E076E14
:1022F00044C000F045C001F046C002F047C003F002
:102300009EEC0CF00A0E046E000E056E066E076E53
:102310009EEC0CF008C000F009C001F00AC002F009
:102320000BC003F0300E00240001776F69C06DF020
:102330006AC06EF06BC06FF06CC070F0010E0101EE
:10234000AD6F010EAE6F710EAF6F000EB06F4CEC43
:102350000DF0820E0C6EDD0E0D6E0D2EFED70C2EC6
:10236000FCD700000000F29EF298F0969D901200BB
:10237000640E046E000E056E066E076E8EC000F0D1
:102380008FC001F090C002F091C003F09EEC0CF001
:10239000300E0024226E0A0E046E000E056E066ECC
:1023A000076E8EC000F08FC001F090C002F091C0A7
:1023B00003F09EEC0CF00A0E046E000E056E066E25
:1023C000076E9EEC0CF008C000F009C001F00AC0D6
:1023D00002F00BC003F0300E0024236E0A0E046ED0
:1023E000000E056E066E076E8EC000F08FC001F005
:1023F00090C002F091C003F09EEC0CF008C000F019
:1024000009C001F00AC002F00BC003F0300E002436
:10241000246E010E0101AD6F010EAE6F1F0EAF6F86
:10242000000EB06F4CEC0DF0820E0C6EDD0E0D6EDA
:102430000D2EFED70C2EFCD7000000001200426AC1
:10244000436A0D0EC26E3C6A3D6A000E3D5C02E1BD
:10245000050E3C5C15E2030E0001606F1FDC0050AE
:10246000422601504322820E0C6EDD0E0D6E0D2EA3
:10247000FED70C2EFCD7000000003C4A3D2AE5D7D1
:10248000050E046E000E056E42C000F043C001F060
:10249000FFEC0DF000C042F001C043F022EC0EF062
:1024A000970E046EA80E056E220E066E7F0E076E46
:1024B000C2EC03F091EC0DF000C02AF001C02BF04B
:1024C00000C028F001C029F01200500E01019C6FDD
:1024D000640E9D6F630E9E6F3A0E9F6F300EA06F5D
:1024E000300EA16F300EA26F2E0EA36F300EA46FB0
:1024F000300EA56F570EA66F610EA76F740EA86FF2
:10250000740EA96FAA6B2AC000F02BC001F04AC05C
:1025100004F04BC005F076EC0CF00A0E046E000ED1
:10252000056EFFEC0DF000C0ADF101C0AEF137EC6F
:102530000EF000C0ABF101C0ACF1100E046E270E1E
:10254000056EABC100F0ACC101F013EC0CF0300E25
:1025500000240101A06FE80E046E030E056EABC1EE
:1025600000F0ACC101F013EC0CF00A0E046E000E8A
:10257000056E13EC0CF008C000F009C001F0300E3D
:1025800000240101A16F640E046E000E056EABC144
:1025900000F0ACC101F013EC0CF00A0E046E000E5A
:1025A000056E13EC0CF008C000F009C001F0300E0D
:1025B00000240101A26F0A0E046E000E056EABC16D
:1025C00000F0ACC101F013EC0CF00A0E046E000E2A
:1025D000056E13EC0CF008C000F009C001F0300EDD
:1025E00000240101A46F0A0E046E000E056EABC13B
:1025F00000F0ACC101F013EC0CF008C000F009C011
:1026000001F0300E00240101A56F020EAD6F010E26
:10261000AE6F0A0EF66E2D0EF76E000EF86E8B0E74
:10262000E16E010EE26E110E006E010E016E1AECEB
:102630000EF08B0EAF6F010EB06F4CEC0DF0020E72
:102640000101AD6F010EAE6F9C0EAF6F010EB06F4A
:102650004CEC0DF04D0E0B6E190E0C6E4F0E0D6EF8
:102660000D2EFED70C2EFCD70B2EFAD70000000043
:102670001200640E046E000E056E28C000F029C022
:1026800001F0FFEC0DF0300E0024516E0A0E046EC6
:10269000000E056E28C000F029C001F0FFEC0DF01F
:1026A0000A0E046E000E056EFFEC0DF008C000F07F
:1026B00009C001F0300E0024526E0A0E046E000EA6
:1026C000056E28C000F029C001F0FFEC0DF008C035
:1026D00000F009C001F0300E0024546E020E01011A
:1026E000AD6F010EAE6F200E8B6F200E8C6F200E23
:1026F0008D6F200E8E6F200E8F6F200E906F200E2C
:10270000916F200E926F200E936F946B8B0EAF6FB4
:10271000010EB06F4CEC0DF0020E0101AD6F010E19
:10272000AE6F4E0EAF6F000EB06F4CEC0DF0410E61
:102730000C6EEE0E0D6E0D2EFED70C2EFCD700008B
:102740001200500E01018B6F610E8C6F3A0E8D6F6F
:10275000300E8E6F300E8F6F300E906F570E916F60
:10276000200E926F936B8EC000F08FC001F0000EB0
:1027700000018FBFFF0E026E036E8AC004F08BC093
:1027800005F08CC006F08DC007F09CEC0AF044C048
:1027900004F045C005F046C006F047C007F09CECC9
:1027A0000AF0A00E046E860E056E010E066E000E77
:1027B000076E9EEC0CF000C094F101C095F102C0D0
:1027C00096F103C097F194C186F095C187F096C148
:1027D00088F097C189F0640E046E000E056E066ED7
:1027E000076E94C100F095C101F096C102F097C147
:1027F00003F09EEC0CF0300E002401018E6F0A0EE7
:10280000046E000E056E066E076E94C100F095C151
:1028100001F096C102F097C103F09EEC0CF00A0E95
:10282000046E000E056E066E076E9EEC0CF008C07E
:1028300000F009C001F00AC002F00BC003F0300E36
:10284000002401018F6F0A0E046E000E056E066EE5
:10285000076E94C100F095C101F096C102F097C1D6
:1028600003F09EEC0CF008C000F009C001F00AC0B3
:1028700002F00BC003F0300E00240101906F010E36
:10288000AD6F090EAE6F8B0EAF6F010EB06F4CECDB
:102890000DF04D0E0B6E190E0C6E4F0E0D6E0D2EB3
:1028A000FED70C2EFCD70B2EFAD70000000012002A
:1028B000640E046E000E056E48C000F049C001F0C1
:1028C000FFEC0DF0300E0024596E0A0E046E000E5F
:1028D000056E48C000F049C001F0FFEC0DF00A0E93
:1028E000046E000E056EFFEC0DF008C000F009C08C
:1028F00001F0300E00245B6E0A0E046E000E056EB1
:1029000048C000F049C001F0FFEC0DF008C000F035
:1029100009C001F0300E00245C6E020E0101AD6FA3
:10292000090EAE6F200E8B6F200E8C6F200E8D6FF8
:10293000200E8E6F200E8F6F200E906F200E916FE5
:10294000200E926F936B8B0EAF6F010EB06F4CEC3D
:102950000DF0020E0101AD6F0A0EAE6F570EAF6F94
:10296000000EB06F4CEC0DF0C30E0C6ECD0E0D6E64
:102970000D2EFED70C2EFCD712000001656B666B86
:10298000110EC26E4C6A4D6A000E4D5C02E1050EDE
:102990004C5C16E2040E606F4EEC0EF0005000012D
:1029A000652701506623820E0C6EDD0E0D6E0D2E16
:1029B000FED70C2EFCD7000000004C4A4D2AE4D76D
:1029C000050E046E000E056E65C000F066C001F0D5
:1029D000FFEC0DF000C065F001C066F022EC0EF0D7
:1029E000FA0E046E0A0E056E620E066E7D0E076EFE
:1029F000C2EC03F091EC0DF000C04AF001C04BF0C6
:102A000000C048F001C049F01200B0EC16F0FF0E13
:102A1000926E79EC0EF0010E0101C06F27EC06F00A
:102A20000C0EC06F27EC06F0010EAD6F040EAE6FFA
:102A30004D0E5E6F750E5F6F6C0E606F740E616F82
:102A4000690E626F6D0E636F650E646F740E656F55
:102A5000650E666F720E676F686B5E0EAF6F010E6C
:102A6000B06F4CEC0DF0080EC16EC06A2DEC0FF08B
:102A7000F80ED56E010ECD6E9E90F80ECF6E2F0E15
:102A8000CE6EC00EF26EF19CF292F19AF0907F0E33
:102A90000B6ED40E0C6E310E0D6E0D2EFED70C2E5D
:102AA000FCD70B2EFAD700000000010EC06F27ECF8
:102AB00006F0FF0ED16E3CEC0FF0DBEC0EF0000EDA
:102AC000046E000E056E200E066E820E076E61C04B
:102AD00000F062C001F063C002F064C003F056EC85
:102AE00004F0010ED8B0000E006E005233E0000E6C
:102AF000046E000E056E200E066E810E076E3EC03F
:102B000000F03FC001F040C002F041C003F056ECBD
:102B100004F0010ED8B0000E006E00521BE0010E52
:102B2000AD6F010EAE6FC50EF66E2C0EF76E000E79
:102B3000F86E690EE16E010EE26E110E006E010E6E
:102B4000016E1AEC0EF0690EAF6F010EB06F4CEC17
:102B50000DF011D00DDCF1EC0FF0330E0B6EBB0E4F
:102B60000C6EDF0E0D6E0D2EFED70C2EFCD70B2E2D
:102B7000FAD70000000061C004F062C005F063C035
:102B800006F064C007F0000E006E000E016E200E0D
:102B9000026E820E036E56EC04F0010ED8B0000EE9
:102BA000006E00521DE03EC004F03FC005F040C082
:102BB00006F041C007F0000E006E000E016E200E00
:102BC000026E810E036E56EC04F0010ED8B0000EBA
:102BD000006E005205E09FEC0FF059EC10F0B1DDF3
:102BE0002EDCCBDE000E2B5C02E10A0E2A5C22E218
:102BF000000E4B5C02E1050E4A5C1CE2020E010174
:102C0000AD6F010EAE6FD60EF66E2C0EF76E000E87
:102C1000F86E7A0EE16E010EE26E110E006E010E7C
:102C2000016E1AEC0EF07A0EAF6F010EB06F4CEC25
:102C30000DF021D01EDD3CDE330E0B6EBB0E0C6E94
:102C4000DF0E0D6E0D2EFED70C2EFCD70B2EFAD7F5
:102C500000000000000E006E2B50005C02E12A50C4
:102C60000A0809E2000E006E4B50005C02E14A5077
:102C7000050801E22ADC1FD7FFD756613A30303011
:102C800056200000000000463A3030487A00496182
:102C90003A302E303041000000000000000000D427
:102CA00003000000000000000056643A30302E306F
:102CB0005600493A302E303041004D756C74696DC4
:102CC00065746572004F3C3D563D3E4F20204F3CA1
:102CD0003D493D3E4F002B3C3D563D3E2D20202B97
:102CE0003C3D493D3E2D000000000000000000007A
:102CF0000000000000000050463A302E3030200026
:102D0000D40300000000000000002020202020202C
:102D100020202020202020202020005064633A30F2
:102D200030302E30305761747400ECF34A90359592
:102D3000958F17C15C8BFDDBED8672B3338020204D
:102D40002020202020202020202020202020002B98
:102D50003401907F9D308BE7FF59850000007FFF95
:102D600010EE1FF0400E006E010E016E7A0EF66E30
:102D70002C0EF76E000EF86E1AEC0EF010EE61F0ED
:102D8000230E006E010E016EE70EF66E2C0EF76E2E
:102D9000000EF86E1AEC0EF01200FFFFFFFFFFFFAF
:020000040030CA
:0E00000000CC1F1EFF0081FF0F400FE00F40DD
:00000001FF
