:020000040000FA
:100000000A128A11F82F00308A000408840A820735
:10001000003431343A3444344334203432343A34C2
:1000200041344334203433343A34543465346D34F9
:10003000703400344F347034633469346F346E3448
:10004000203445346C346534673469346434613445
:100050003A3400344534723472346F34723420349C
:10006000533465346C3465346334633469346F34C9
:100070006E3400344D3475346C34743469346D34FA
:100080006534743472346F342034413443343A3438
:1000900000344D3475346C34743469346D346534E3
:1000A000743472346F342034443443343A3400347A
:1000B00045346C34653467346934723420346F34B9
:1000C0007034633469346F346E343A3400345034ED
:1000D0005234413443345434493443344134203469
:1000E00032340034563461346C346F3472343A3400
:0400F0002034003484
:1006DE0002300A128A1154260A128A110800831255
:1006EE000313081100300A128A11B8230A128A1154
:1006FE0001300A128A11B8230A128A1183120313C7
:10070E00081108008030831203139F008E30831669
:10071E0003139F00831203130C1301309E008316E4
:10072E0003139E01513081008312031381010800CF
:10073E00FF30831603138500831203138501FF30E8
:10074E008316031386008312031386018316031385
:10075E0088018312031388017630831603138F00EA
:10076E000800F300831203130811881073080A128D
:10077E008A11D3230A128A118312031308140B3021
:10078E00F2006230F100F10BCA2BF20BCA2B000003
:10079E008312031308100800F000701CD72BD82BFF
:1007AE00DC2B831203130816DF2B8312031308129C
:1007BE00F01CE22BE32BE52B8816E62B8812701D1E
:1007CE00E92BEA2BEC2B0817ED2B0813F01DF02B61
:1007DE00F12BF32B8817F42B8813080083120313C5
:1007EE001F129F111F111F147B08F1007A08F000D1
:1007FE000A128A115D250A128A11831203139F149D
:10080E000C1B0A2C0B2C0C2C072C1F101E08AE00D8
:10081E00831603131E0883120313AD000C13080076
:10082E00F700F501F6012E2C7508770784000A12E1
:10083E008A1103200A128A110A128A1122250A121B
:10084E008A110130F5070318F60A0030F60775080D
:10085E00770784000A128A1103200A128A11003ABD
:10086E00031D3A2C3B2C1B2C08000A128A117623EE
:10087E000A128A11F401F40A01300A128A119C2517
:10088E000A128A1122300A128A1117240A128A11A8
:10089E00F401F40A02300A128A119C250A128A11F6
:1008AE006A300A128A1117240A128A110330FD00C7
:1008BE000830FC007730FB00FB0B632CFC0B632C29
:1008CE00FD0B632C08000A128A1176230A128A1174
:1008DE00F401F40A01300A128A119C250A128A11B7
:1008EE0050300A128A1117240A128A11F401F40ADE
:1008FE0002300A128A119C250A128A1101300A123C
:10090E008A1117240A128A110330FD000830FC00E8
:10091E007730FB00FB0B912CFC0B912CFD0B912CDB
:10092E0008000A128A1176230A128A11F401F40AB7
:10093E0001300A128A119C250A128A1112300A12EB
:10094E008A1117240A128A11F401F40A02300A12CB
:10095E008A119C250A128A1132300A128A11172422
:10096E000A128A110330FD000830FC007730FB00BC
:10097E00FB0BBF2CFC0BBF2CFD0BBF2C08000A126F
:10098E008A1176230A128A11F401F40A01300A122E
:10099E008A119C250A128A1112300A128A11172402
:1009AE000A128A11F401F40A02300A128A119C25E5
:1009BE000A128A1141300A128A1117240A128A1158
:1009CE000330FD000830FC007730FB00FB0BED2CF4
:1009DE00FC0BED2CFD0BED2C08000A128A11762370
:1009EE000A128A11F401F40A01300A128A119C25A6
:1009FE000A128A1112300A128A1117240A128A1147
:100A0E00F401F40A02300A128A119C250A128A1184
:100A1E0032300A128A1117240A128A110330FD008D
:100A2E000830FC007730FB00FB0B1B2DFC0B1B2D45
:100A3E00FD0B1B2D0800F40083120313081174081C
:100A4E000F39F1007108F2007408F039F1007108E5
:100A5E00F30088147308F10004300310F10CFF3E0C
:100A6E00031D342D71080A128A11D3230A128A111A
:100A7E008312031308141A30F100F10B442D0000F9
:100A8E0083120313081072080A128A11D3230A1252
:100A9E008A118312031308141A30F100F10B552D2D
:100AAE000000831203130810081108000030F9002B
:100ABE000030F8000030F7000030F6008312031308
:100ACE0081017008F2007108F3000030F31BFF3053
:100ADE00F400F5007508803AFF007908803A7F022D
:100AEE00031D832D78087402031D832D770873026E
:100AFE00031D832D76087202031C862D872D9B2DD8
:100B0E00F91B9A2D7908031D992D7808031D992D2F
:100B1E007708031D992D89307602031D962D031833
:100B2E00992D9A2D9B2D682D0800F7008312031323
:100B3E0008117703031DA42DA52DC82D74087F3E23
:100B4E00F5007508FA007A08F50004300310F50C6C
:100B5E00FF3E031DAD2D7508F6007608F8007A08E5
:100B6E000F39F5007508F90078080A128A11B823B2
:100B7E000A128A1179080A128A11B8230A128A11E6
:100B8E00F02D02307706031DCD2DCE2DF02D7408DD
:100B9E00BF3EF5007508FA007A08F5000430031020
:100BAE00F50CFF3E031DD62D7508F6007608F800ED
:100BBE007A080F39F5007508F90078080A128A11BB
:100BCE00B8230A128A1179080A128A11B8230A1256
:100BDE008A118312031308110800831203130811DC
:100BEE0000300A128A11D3230A128A113430F5000A
:100BFE00F130F400F40B012EF50B012E062E03300E
:100C0E000A128A11B8230A128A110D30F500FB3030
:100C1E00F400F40B102EF50B102E152E03300A12C5
:100C2E008A11B8230A128A111D30F5009130F40092
:100C3E00F40B1F2EF50B1F2E03300A128A11B82348
:100C4E000A128A1102300A128A11B8230A128A1164
:100C5E0002300A128A11B8230A128A1108300A12B7
:100C6E008A11B8230A128A1100300A128A11B82387
:100C7E000A128A110C300A128A11B8230A128A112A
:100C8E0000300A128A11B8230A128A1106300A128B
:100C9E008A11B8230A128A1108000130FA000030B6
:100CAE00FB000A128A11F5230A128A11831203130A
:100CBE002E08803AFF0080307F02031D682E7F30A1
:100CCE002D0203186B2E6C2E6F2E831203138601CA
:100CDE00831203132E08803AFF0080307F02031D1B
:100CEE007A2E80302D02031C7D2E7E2E822E013018
:100CFE00831203138600831203132E08803AFF001B
:100D0E0081307F02031D8D2E00302D02031C902E8C
:100D1E00912E952E03308312031386008312031334
:100D2E002E08803AFF0081307F02031DA02E7F30F7
:100D3E002D02031CA32EA42EA82E073083120313FC
:100D4E008600831203132E08803AFF0082307F0242
:100D5E00031DB32E00302D02031CB62EB72EBB2E54
:100D6E000F30831203138600831203132E08803A6A
:100D7E00FF0082307F02031DC62E80302D02031C21
:100D8E00C92ECA2ECE2E1F30831203138600831255
:100D9E0003132E08803AFF0083307F02031DD92EE5
:100DAE0000302D02031CDC2EDD2EE12E3F3083128F
:100DBE0003138600831203132E08803AFF0083303C
:100DCE007F02031DEC2E7F302D02031CEF2EF02E22
:100DDE00F42E7F30831203138600831203132E0822
:100DEE00803AFF0083307F02031DFF2EFF302D025D
:100DFE00031C022F032F072FFF30831203138600CD
:100E0E00080083120313A501A6010A128A119F235B
:100E1E000A128A110A128A1189230A128A110A12D7
:100E2E008A11F4250A128A110A128A1176230A12DD
:100E3E008A11F401F40A01300A128A119C250A1251
:100E4E008A115F300A128A1117240A128A1102308F
:100E5E00F0000030F1000A128A115D250A128A1183
:100E6E000A128A116A240A128A11831203130618AF
:100E7E00412F422F7B2FA701A8010530F000003033
:100E8E00F1000A128A115D250A128A1101308312AD
:100E9E000313A7070318A80A0030A8072808803AEA
:100EAE00FF0080307F02031D5E2F15302702031CCA
:100EBE00612F622F442F831203130618672F682F9A
:100ECE007B2F0A128A11C6240A128A110A128A115B
:100EDE006F230A128A111430F0000030F1000A124A
:100EEE008A115D250A128A11831203138618802F28
:100EFE00812FB52FA901AA010530F0000030F100B5
:100F0E000A128A115D250A128A1101308312031307
:100F1E00A9070318AA0A0030AA072A08803AFF0078
:100F2E0080307F02031D9D2F15302902031CA02F38
:100F3E00A12F832F831203138618A62FA72FB52F49
:100F4E000A128A1198240A128A111430F000003005
:100F5E00F1000A128A115D250A128A1183120313F7
:100F6E000619BA2FBB2FEF2FAB01AC010530F000E5
:100F7E000030F1000A128A115D250A128A11013021
:100F8E0083120313AB070318AC0A0030AC072C080E
:100F9E00803AFF0080307F02031DD72F15302B02C1
:100FAE00031CDA2FDB2FBD2F831203130619E02F3C
:100FBE00E12FEF2F0A128A11F4240A128A1114302B
:100FCE00F0000030F1000A128A115D250A128A1112
:100FDE000A128A113C240A128A11372F0A128A1118
:100FEE00002883120313AD01AE0183010A128A1188
:020FFE00082FBA
:04400E00F22FFF3F4F
:00000001FF
