:1000000002308A00172A0000D024C3183623381C77
:100010003700CC214410653CE13670366500C832AB
:100020006C366F10F7377236E41000012830840008
:100030008313000803192A280130F800F701F70B91
:100040001F28F80B1E284A30F700F70B2528282810
:10005000800B1C2808002E182F288811302888159E
:10006000831688118312AE1837280812382808160C
:100070008316081283122E193F28881240288816EA
:10008000831688128312AE194728081348280817C8
:1000900083160813000083120815831608115028D0
:1000A000831208118316081183120800AF0183160A
:1000B00088150030831288190130AF0483160816A2
:1000C00000308312081A0130F7000310F70D77088B
:1000D000AF048316881600308312881A0130F700A7
:1000E000F70DF70DFC30F7057708AF0483160817F6
:1000F00000308312081B0130F700F70DF70DF70DE4
:10010000F830F7057708AF042F08F80008008316C9
:10011000081108108810831208108316081088151B
:100120000816881608178312881483168810000092
:1001300083120815831608110000831256207808D0
:10014000AE000811831608110000831208158316EB
:1001500008110000831256207808AD00081183169C
:100160000811881108128812081383122E0EF70046
:10017000F030F70577082D04F8007808AD00AD1FC2
:10018000C32883168F28AB08031DC8280810C92868
:100190000814831608100000831288108316881034
:1001A0000000831208118316081183122C0EAD0073
:1001B0000F30AD052D08AE002B202C080F39AD00F7
:1001C000AE002B2008002830A4000C30A500013020
:1001D000A6000630A7000811831608118312081024
:1001E000831608108312881083168810881108124D
:1001F000881208130811081088100F308312A80005
:1002000016200130A3002308033C031C0F290330F0
:10021000AE002B200530A8001620A30A03290230C7
:10022000AE002B200530A8001620A3012308033CB4
:10023000031C262924302307840083130008A80008
:10024000AB012808AC008720A30A16298A110A12DC
:100250003A2A280B2C292F294030A9003029A9013E
:1002600001302702A90729088038AA00AB012A0813
:10027000AC00872008002608073A031949290B3AE1
:1002800003194E29063A03195629023A03195C2923
:1002900061290130A700A80029216629AB0101309E
:1002A000AC0087200230A800162066290130A70084
:1002B0000230A80029216629AB011030AC0087204C
:1002C00066290130AB002608AC00872008000B0827
:1002D000A3008B13831603178C170C140000000067
:1002E00083120313A31B8B1703170C087F39031901
:1002F000BB290313A30003170D080313A40003175E
:100300000F080313A5002308A6003B2124080317A8
:100310008D000313250803178F0003130B08A60095
:100320008B13831603178C170C1400000000831224
:100330000313A61B8B1703170C0D0E0D7F39031922
:10034000BB290313A30003170D080313A40003170D
:100350000F080313A5002308A6003B212408031758
:100360008D000313250803178F008D0A03198F0AC8
:1003700003136729031703130800AB011E30AC00F9
:1003800087208A110A127C2AAB011830AC00872022
:100390008A110A12872A2608F80125020318D32990
:1003A0002508F700DF29F7010830A700A50DF70D94
:1003B000260877020318F700F80DA70BD6290800C6
:1003C00078082308A5006430A600CB217708A30095
:1003D00078083030031DF329A41CFA29A419FA293E
:1003E000241A2030F629A41124122414F8077808BE
:1003F000A6003B212308A5000A30A600CB217708E0
:10040000A30078083030031D0B2AA4190F2A241CDE
:100410000F2A241A2030F8077808A6003B21303034
:10042000A3072308A6003B218A110A129B2A03086E
:100430001F398300613083168F0090010F088312EB
:10044000A201A101831603170908C039890003130B
:100450001F129F1200300317880083128701880142
:10046000890183136130831603138F0090010F08F5
:100470008312E3280C30A6003B210230A700013094
:10048000A8002921043003178D0000308F000313CA
:1004900067210430A300FA30A8001620A30B4B2AD2
:1004A0000130A7000230A8002921093003178D0070
:1004B00000308F00031367210430A300FA30A80036
:1004C0001620A30B5E2A1530A7000130A8002921B1
:1004D0000F3003178D0000308F00031367210430A5
:1004E000A300FA30A8001620A30B712AA00120084F
:1004F000073C031C812ABD296430A8001620A00AED
:10050000772AA0012008033C031C8C2AC4296430EC
:10051000A8001620A00A822AA0012008C73C031CBC
:10052000A02A1930A7000230A80029212008A30022
:100530001330A400E029C830A8001620A00A8D2A94
:04054000A02A63008A
:04400E00C42C0007B7
:00000001FF
;PIC16F887
;CRC=D343  CREATED="01-ћжнне-17 10:25"
